{
  "contractName": "UserRegistry",
  "abi": [
    {
      "anonymous": false,
      "inputs": [
        {
          "indexed": false,
          "internalType": "string",
          "name": "username",
          "type": "string"
        },
        {
          "indexed": false,
          "internalType": "address",
          "name": "userAddress",
          "type": "address"
        }
      ],
      "name": "UserRegistered",
      "type": "event"
    },
    {
      "inputs": [
        {
          "internalType": "address",
          "name": "",
          "type": "address"
        }
      ],
      "name": "users",
      "outputs": [
        {
          "internalType": "string",
          "name": "username",
          "type": "string"
        },
        {
          "internalType": "address",
          "name": "userAddress",
          "type": "address"
        }
      ],
      "stateMutability": "view",
      "type": "function"
    },
    {
      "inputs": [
        {
          "internalType": "string",
          "name": "_username",
          "type": "string"
        }
      ],
      "name": "registerUser",
      "outputs": [],
      "stateMutability": "nonpayable",
      "type": "function"
    }
  ],
  "bytecode": "0x608060405234801561000f575f80fd5b5061095a8061001d5f395ff3fe608060405234801561000f575f80fd5b5060043610610034575f3560e01c8063704f1b9414610038578063a87430ba14610054575b5f80fd5b610052600480360381019061004d9190610467565b610085565b005b61006e60048036038101906100699190610508565b610256565b60405161007c9291906105bc565b60405180910390f35b5f73ffffffffffffffffffffffffffffffffffffffff165f803373ffffffffffffffffffffffffffffffffffffffff1673ffffffffffffffffffffffffffffffffffffffff1681526020019081526020015f206001015f9054906101000a900473ffffffffffffffffffffffffffffffffffffffff1673ffffffffffffffffffffffffffffffffffffffff1614610151576040517f08c379a000000000000000000000000000000000000000000000000000000000815260040161014890610634565b60405180910390fd5b5f60405180604001604052808381526020013373ffffffffffffffffffffffffffffffffffffffff168152509050805f803373ffffffffffffffffffffffffffffffffffffffff1673ffffffffffffffffffffffffffffffffffffffff1681526020019081526020015f205f820151815f0190816101cf9190610855565b506020820151816001015f6101000a81548173ffffffffffffffffffffffffffffffffffffffff021916908373ffffffffffffffffffffffffffffffffffffffff1602179055509050507f7f605d0ff47d2a070e456b69ce2a36041788910b64443c7f4c6d307993cade2c823360405161024a9291906105bc565b60405180910390a15050565b5f602052805f5260405f205f91509050805f0180546102749061067f565b80601f01602080910402602001604051908101604052809291908181526020018280546102a09061067f565b80156102eb5780601f106102c2576101008083540402835291602001916102eb565b820191905f5260205f20905b8154815290600101906020018083116102ce57829003601f168201915b505050505090806001015f9054906101000a900473ffffffffffffffffffffffffffffffffffffffff16905082565b5f604051905090565b5f80fd5b5f80fd5b5f80fd5b5f80fd5b5f601f19601f8301169050919050565b7f4e487b71000000000000000000000000000000000000000000000000000000005f52604160045260245ffd5b61037982610333565b810181811067ffffffffffffffff8211171561039857610397610343565b5b80604052505050565b5f6103aa61031a565b90506103b68282610370565b919050565b5f67ffffffffffffffff8211156103d5576103d4610343565b5b6103de82610333565b9050602081019050919050565b828183375f83830152505050565b5f61040b610406846103bb565b6103a1565b9050828152602081018484840111156104275761042661032f565b5b6104328482856103eb565b509392505050565b5f82601f83011261044e5761044d61032b565b5b813561045e8482602086016103f9565b91505092915050565b5f6020828403121561047c5761047b610323565b5b5f82013567ffffffffffffffff81111561049957610498610327565b5b6104a58482850161043a565b91505092915050565b5f73ffffffffffffffffffffffffffffffffffffffff82169050919050565b5f6104d7826104ae565b9050919050565b6104e7816104cd565b81146104f1575f80fd5b50565b5f81359050610502816104de565b92915050565b5f6020828403121561051d5761051c610323565b5b5f61052a848285016104f4565b91505092915050565b5f81519050919050565b5f82825260208201905092915050565b5f5b8381101561056a57808201518184015260208101905061054f565b5f8484015250505050565b5f61057f82610533565b610589818561053d565b935061059981856020860161054d565b6105a281610333565b840191505092915050565b6105b6816104cd565b82525050565b5f6040820190508181035f8301526105d48185610575565b90506105e360208301846105ad565b9392505050565b7f5573657220616c726561647920726567697374657265640000000000000000005f82015250565b5f61061e60178361053d565b9150610629826105ea565b602082019050919050565b5f6020820190508181035f83015261064b81610612565b9050919050565b7f4e487b71000000000000000000000000000000000000000000000000000000005f52602260045260245ffd5b5f600282049050600182168061069657607f821691505b6020821081036106a9576106a8610652565b5b50919050565b5f819050815f5260205f209050919050565b5f6020601f8301049050919050565b5f82821b905092915050565b5f6008830261070b7fffffffffffffffffffffffffffffffffffffffffffffffffffffffffffffffff826106d0565b61071586836106d0565b95508019841693508086168417925050509392505050565b5f819050919050565b5f819050919050565b5f61075961075461074f8461072d565b610736565b61072d565b9050919050565b5f819050919050565b6107728361073f565b61078661077e82610760565b8484546106dc565b825550505050565b5f90565b61079a61078e565b6107a5818484610769565b505050565b5b818110156107c8576107bd5f82610792565b6001810190506107ab565b5050565b601f82111561080d576107de816106af565b6107e7846106c1565b810160208510156107f6578190505b61080a610802856106c1565b8301826107aa565b50505b505050565b5f82821c905092915050565b5f61082d5f1984600802610812565b1980831691505092915050565b5f610845838361081e565b9150826002028217905092915050565b61085e82610533565b67ffffffffffffffff81111561087757610876610343565b5b610881825461067f565b61088c8282856107cc565b5f60209050601f8311600181146108bd575f84156108ab578287015190505b6108b5858261083a565b86555061091c565b601f1984166108cb866106af565b5f5b828110156108f2578489015182556001820191506020850194506020810190506108cd565b8683101561090f578489015161090b601f89168261081e565b8355505b6001600288020188555050505b50505050505056fea2646970667358221220090cae5243dc9c6c27e58c740e0c0b955353fdb4dfd0b9b17e084859af6696bc64736f6c63430008150033",
  "immutableReferences": {},
  "source": "// SPDX-License-Identifier: MIT\r\npragma solidity ^0.8.19;\r\n\r\ncontract UserRegistry {\r\n    // Struct to store user details\r\n    struct User {\r\n        string username;\r\n        address userAddress;\r\n    }\r\n\r\n    // Mapping to store users\r\n    mapping(address => User) public users;\r\n\r\n    // Event emitted when a new user is registered\r\n    event UserRegistered(string username, address userAddress);\r\n\r\n    // Function to register a new user\r\n    function registerUser(string memory _username) public {\r\n        // Check if the user is not already registered\r\n        require(users[msg.sender].userAddress == address(0), \"User already registered\");\r\n\r\n        // Create a new user\r\n        User memory newUser = User({\r\n            username: _username,\r\n            userAddress: msg.sender\r\n        });\r\n\r\n        // Add the user to the mapping\r\n        users[msg.sender] = newUser;\r\n\r\n        // Emit the UserRegistered event\r\n        emit UserRegistered(_username, msg.sender);\r\n    }\r\n}\r\n",
  "sourcePath": "C:\\Users\\Engineer Denis\\Desktop\\DENIS\\WORKPLACE\\PROJECTS 2024\\Healthcare System Using Ethereum Blockchain and Solidity Smart Contracts\\contracts\\UserRegistry.sol",
  "compiler": {
    "name": "solc",
    "version": "0.8.21+commit.d9974bed.Emscripten.clang"
  },
  "schemaVersion": "3.4.16",
  "updatedAt": "2024-02-15T06:17:25.013Z",
  "devdoc": {
    "kind": "dev",
    "methods": {},
    "version": 1
  },
  "userdoc": {
    "kind": "user",
    "methods": {},
    "version": 1
  }
}